{
  "contractName": "Voting",
  "abi": [
    {
      "inputs": [
        {
          "internalType": "string[]",
          "name": "_candidateNames",
          "type": "string[]"
        }
      ],
      "stateMutability": "nonpayable",
      "type": "constructor"
    },
    {
      "inputs": [
        {
          "internalType": "bytes32",
          "name": "",
          "type": "bytes32"
        }
      ],
      "name": "idToCandidate",
      "outputs": [
        {
          "internalType": "string",
          "name": "",
          "type": "string"
        }
      ],
      "stateMutability": "view",
      "type": "function"
    },
    {
      "inputs": [
        {
          "internalType": "address",
          "name": "",
          "type": "address"
        }
      ],
      "name": "voterStatus",
      "outputs": [
        {
          "internalType": "bool",
          "name": "",
          "type": "bool"
        }
      ],
      "stateMutability": "view",
      "type": "function"
    },
    {
      "inputs": [
        {
          "internalType": "bytes32",
          "name": "",
          "type": "bytes32"
        }
      ],
      "name": "votesReceived",
      "outputs": [
        {
          "internalType": "uint8",
          "name": "",
          "type": "uint8"
        }
      ],
      "stateMutability": "view",
      "type": "function"
    },
    {
      "inputs": [
        {
          "internalType": "bytes32",
          "name": "_candidateId",
          "type": "bytes32"
        }
      ],
      "name": "totalVotesFor",
      "outputs": [
        {
          "internalType": "uint8",
          "name": "",
          "type": "uint8"
        }
      ],
      "stateMutability": "view",
      "type": "function"
    },
    {
      "inputs": [
        {
          "internalType": "bytes32",
          "name": "_candidateId",
          "type": "bytes32"
        },
        {
          "internalType": "address",
          "name": "_voter",
          "type": "address"
        },
        {
          "internalType": "bytes",
          "name": "_signedMessage",
          "type": "bytes"
        }
      ],
      "name": "voteForCandidate",
      "outputs": [],
      "stateMutability": "nonpayable",
      "type": "function"
    }
  ],
  "bytecode": "0x60806040523480156200001157600080fd5b5060405162000f4e38038062000f4e83398181016040528101906200003791906200031b565b60005b81518110156200013457600082828151811062000080577f4e487b7100000000000000000000000000000000000000000000000000000000600052603260045260246000fd5b60200260200101516040516020016200009a919062000397565b604051602081830303815290604052805190602001209050828281518110620000ec577f4e487b7100000000000000000000000000000000000000000000000000000000600052603260045260246000fd5b60200260200101516001600083815260200190815260200160002090805190602001906200011c9291906200013c565b505080806200012b9062000500565b9150506200003a565b5050620005ec565b8280546200014a9062000494565b90600052602060002090601f0160209004810192826200016e5760008555620001ba565b82601f106200018957805160ff1916838001178555620001ba565b82800160010185558215620001ba579182015b82811115620001b95782518255916020019190600101906200019c565b5b509050620001c99190620001cd565b5090565b5b80821115620001e8576000816000905550600101620001ce565b5090565b600062000203620001fd84620003d9565b620003b0565b905080838252602082019050828560208602820111156200022357600080fd5b60005b858110156200027257815167ffffffffffffffff8111156200024757600080fd5b808601620002568982620002ee565b8552602085019450602084019350505060018101905062000226565b5050509392505050565b6000620002936200028d8462000408565b620003b0565b905082815260208101848484011115620002ac57600080fd5b620002b98482856200045e565b509392505050565b600082601f830112620002d357600080fd5b8151620002e5848260208601620001ec565b91505092915050565b600082601f8301126200030057600080fd5b8151620003128482602086016200027c565b91505092915050565b6000602082840312156200032e57600080fd5b600082015167ffffffffffffffff8111156200034957600080fd5b6200035784828501620002c1565b91505092915050565b60006200036d826200043e565b62000379818562000449565b93506200038b8185602086016200045e565b80840191505092915050565b6000620003a5828462000360565b915081905092915050565b6000620003bc620003cf565b9050620003ca8282620004ca565b919050565b6000604051905090565b600067ffffffffffffffff821115620003f757620003f6620005ac565b5b602082029050602081019050919050565b600067ffffffffffffffff821115620004265762000425620005ac565b5b6200043182620005db565b9050602081019050919050565b600081519050919050565b600081905092915050565b6000819050919050565b60005b838110156200047e57808201518184015260208101905062000461565b838111156200048e576000848401525b50505050565b60006002820490506001821680620004ad57607f821691505b60208210811415620004c457620004c36200057d565b5b50919050565b620004d582620005db565b810181811067ffffffffffffffff82111715620004f757620004f6620005ac565b5b80604052505050565b60006200050d8262000454565b91507fffffffffffffffffffffffffffffffffffffffffffffffffffffffffffffffff8214156200054357620005426200054e565b5b600182019050919050565b7f4e487b7100000000000000000000000000000000000000000000000000000000600052601160045260246000fd5b7f4e487b7100000000000000000000000000000000000000000000000000000000600052602260045260246000fd5b7f4e487b7100000000000000000000000000000000000000000000000000000000600052604160045260246000fd5b6000601f19601f8301169050919050565b61095280620005fc6000396000f3fe608060405234801561001057600080fd5b50600436106100575760003560e01c80632f265cf71461005c578063576cc4f21461008c5780637021939f146100bc578063a29f95da146100ec578063cd3a83d51461011c575b600080fd5b6100766004803603810190610071919061051a565b610138565b6040516100839190610692565b60405180910390f35b6100a660048036038101906100a191906104f1565b610161565b6040516100b39190610610565b60405180910390f35b6100d660048036038101906100d1919061051a565b610181565b6040516100e39190610692565b60405180910390f35b6101066004803603810190610101919061051a565b6101a1565b6040516101139190610670565b60405180910390f35b61013660048036038101906101319190610543565b610241565b005b600080600083815260200190815260200160002060009054906101000a900460ff169050919050565b60026020528060005260406000206000915054906101000a900460ff1681565b60006020528060005260406000206000915054906101000a900460ff1681565b600160205280600052604060002060009150905080546101c0906107ed565b80601f01602080910402602001604051908101604052809291908181526020018280546101ec906107ed565b80156102395780601f1061020e57610100808354040283529160200191610239565b820191906000526020600020905b81548152906001019060200180831161021c57829003601f168201915b505050505081565b600260008373ffffffffffffffffffffffffffffffffffffffff1673ffffffffffffffffffffffffffffffffffffffff16815260200190815260200160002060009054906101000a900460ff161561029857600080fd5b60006102ad828561038c90919063ffffffff16565b90508273ffffffffffffffffffffffffffffffffffffffff168173ffffffffffffffffffffffffffffffffffffffff16146102e757600080fd5b600160008086815260200190815260200160002060008282829054906101000a900460ff16610316919061071f565b92506101000a81548160ff021916908360ff1602179055506001600260008573ffffffffffffffffffffffffffffffffffffffff1673ffffffffffffffffffffffffffffffffffffffff16815260200190815260200160002060006101000a81548160ff02191690831515021790555050505050565b60008060008060418551146103a75760009350505050610459565b6020850151925060408501519150606085015160001a9050601b8160ff1610156103db57601b816103d8919061071f565b90505b601b8160ff16141580156103f35750601c8160ff1614155b156104045760009350505050610459565b60018682858560405160008152602001604052604051610427949392919061062b565b6020604051602081039080840390855afa158015610449573d6000803e3d6000fd5b5050506020604051035193505050505b92915050565b600061047261046d846106d2565b6106ad565b90508281526020810184848401111561048a57600080fd5b6104958482856107ab565b509392505050565b6000813590506104ac816108ee565b92915050565b6000813590506104c181610905565b92915050565b600082601f8301126104d857600080fd5b81356104e884826020860161045f565b91505092915050565b60006020828403121561050357600080fd5b60006105118482850161049d565b91505092915050565b60006020828403121561052c57600080fd5b600061053a848285016104b2565b91505092915050565b60008060006060848603121561055857600080fd5b6000610566868287016104b2565b93505060206105778682870161049d565b925050604084013567ffffffffffffffff81111561059457600080fd5b6105a0868287016104c7565b9150509250925092565b6105b381610768565b82525050565b6105c281610774565b82525050565b60006105d382610703565b6105dd818561070e565b93506105ed8185602086016107ba565b6105f6816108dd565b840191505092915050565b61060a8161079e565b82525050565b600060208201905061062560008301846105aa565b92915050565b600060808201905061064060008301876105b9565b61064d6020830186610601565b61065a60408301856105b9565b61066760608301846105b9565b95945050505050565b6000602082019050818103600083015261068a81846105c8565b905092915050565b60006020820190506106a76000830184610601565b92915050565b60006106b76106c8565b90506106c3828261081f565b919050565b6000604051905090565b600067ffffffffffffffff8211156106ed576106ec6108ae565b5b6106f6826108dd565b9050602081019050919050565b600081519050919050565b600082825260208201905092915050565b600061072a8261079e565b91506107358361079e565b92508260ff0382111561074b5761074a610850565b5b828201905092915050565b60006107618261077e565b9050919050565b60008115159050919050565b6000819050919050565b600073ffffffffffffffffffffffffffffffffffffffff82169050919050565b600060ff82169050919050565b82818337600083830152505050565b60005b838110156107d85780820151818401526020810190506107bd565b838111156107e7576000848401525b50505050565b6000600282049050600182168061080557607f821691505b602082108114156108195761081861087f565b5b50919050565b610828826108dd565b810181811067ffffffffffffffff82111715610847576108466108ae565b5b80604052505050565b7f4e487b7100000000000000000000000000000000000000000000000000000000600052601160045260246000fd5b7f4e487b7100000000000000000000000000000000000000000000000000000000600052602260045260246000fd5b7f4e487b7100000000000000000000000000000000000000000000000000000000600052604160045260246000fd5b6000601f19601f8301169050919050565b6108f781610756565b811461090257600080fd5b50565b61090e81610774565b811461091957600080fd5b5056fea26469706673582212205be9c8c9090d4c8eea464c9dc331ac231c391afbe73dfcb3fb99ef2b27e5b5b964736f6c63430008040033",
  "immutableReferences": {},
  "source": "//SPDX-License-Identifier: MIT\npragma solidity ^0.8.0;\nimport \"./ECRecovery.sol\";\n\ncontract Voting {\n  using ECRecovery for bytes32;\n\n  mapping (bytes32 => uint8) public votesReceived;\n\n  mapping(bytes32 => string) public idToCandidate;\n\n  mapping(address => bool) public voterStatus;\n\n  constructor(string[] memory _candidateNames){\n    for(uint i = 0; i < _candidateNames.length; i++) {\n      bytes32 candidateId = keccak256(abi.encodePacked(_candidateNames[i]));\n      idToCandidate[candidateId] = _candidateNames[i];\n    }\n  }\n\n  function totalVotesFor(bytes32 _candidateId) view external returns (uint8) {\n    return votesReceived[_candidateId];\n  }\n\n  function voteForCandidate(bytes32 _candidateId, address _voter, bytes memory _signedMessage) external {\n    require(!voterStatus[_voter]);\n\n    address recoveredAddress = _candidateId.recover(_signedMessage);\n\n    require(recoveredAddress == _voter);\n\n    votesReceived[_candidateId] += 1;\n    voterStatus[_voter] = true;\n  }\n}\n\n",
  "sourcePath": "/Users/hussain/projects/DVotingApp/contracts/Voting.sol",
  "compiler": {
    "name": "solc",
    "version": "0.8.4+commit.c7e474f2.Emscripten.clang"
  },
  "schemaVersion": "3.4.8",
  "updatedAt": "2022-07-19T11:36:03.068Z",
  "devdoc": {
    "kind": "dev",
    "methods": {},
    "version": 1
  },
  "userdoc": {
    "kind": "user",
    "methods": {},
    "version": 1
  }
}